:020000040800F2
:10000000D0140020E1370008D5370008D7370008A2
:10001000DB370008EF370008F13700080000000068
:10002000000000000000000000000000F33700089E
:10003000F537000800000000F7370008631F0008CC
:10004000FB370008FB370008FB370008FB370008C8
:10005000FB370008FB370008FB370008FB370008B8
:10006000FB370008FB370008FB370008D1100008F9
:10007000FB370008FB370008FB370008FB37000898
:10008000FB370008FB370008FB370008FB37000888
:10009000E320000811210008FB370008FB370008A7
:1000A000FB370008FB370008FB370008FB37000868
:1000B000FB370008FB370008FB370008FB37000858
:1000C000FB370008FB370008FB370008FB37000848
:1000D000FB370008FB370008FB3700089D0D0008C0
:1000E000FB370008FB370008FB370008FB37000828
:1000F000FB370008FB370008FB370008FB37000818
:10010000FB370008FB370008FB370008FB37000807
:10011000FB370008FB370008FB370008FB370008F7
:10012000FB370008FB370008FB370008FB370008E7
:1001300000F002F800F05AF80AA090E8000C82449F
:100140008344AAF10107DA4501D100F04FF8AFF27C
:10015000090EBAE80F0013F0010F18BFFB1A43F0A5
:1001600001031847C4620000E46200000A444FF033
:10017000000C10F8013B13F0070408BF10F8014B06
:100180001D1108BF10F8015B641E05D010F8016B4B
:10019000641E01F8016BF9D113F0080F1EBF10F8AF
:1001A000014BAD1C0C1B09D16D1E58BF01F801CBD2
:1001B000FAD505E014F8016B01F8016B6D1EF9D555
:1001C0009142D6D37047000000230024002500266A
:1001D000103A28BF78C1FBD8520728BF30C148BFAA
:1001E0000B6070471FB51FBD10B510BD04F04CF873
:1001F0001146FFF7F7FF00F009F804F06AF803B4BE
:10020000FFF7F2FF03BC04F06BF8000001F076FE8C
:1002100005498868804705494868804701200349A7
:10022000087400BFFEE70000DC0000200001002091
:100230002DE9F04F8DB0002500200B900A90FE486C
:1002400009900020079008900690059004900024E3
:1002500000BF30E0142000EB4500F849085C132192
:1002600001EB4501F54A515C00EB81100B9005F163
:10027000800005F02CF90746F14AF24B05F052F9DF
:1002800000224FF08143CDE9000104F099FFEE4ACE
:10029000EE4BCDE9020104F0E3FE81F0004182461D
:1002A00004F0ACFE0A90EA490B9841F82400601C67
:1002B00084B2681C85B2E7490988A1F1140000EBFB
:1002C000D071B5EB610FC5DB00241EE0E04850F8AB
:1002D0002400B0F5FA7F16D9DD49601C51F82000E2
:1002E000B0F5FA7F01D2012000E00020D84A611C5D
:1002F00052F82110C82901D9012100E0002108424B
:1003000001D00FFA84F9601C84B2FF2CDEDD4FF4BB
:10031000807414E0CE4850F82400B0F5FA7F0CD970
:10032000601ECB4951F82000B0F5FA7F05D2601E5F
:1003300051F82000C82800D926B2601C84B2B4F558
:10034000007FE7DBB6F58A7F21DDB6F5FA7F1EDA9E
:10035000B9F10A0F1BDDB9F1F60F18DA06EB090047
:1003600005F0B5F8074600224FF0814305F0CAFAC0
:100370000022B94BCDE9000105F0D4F8CDE9020126
:1003800004F03CFE8246B548C168504688470DB02F
:10039000BDE8F08F2DE9F047A74A5168106805F0D5
:1003A000C7FB814605F098FB07464FF0CC32AC4BBB
:1003B00005F0B8F8054604F021FE0446A748C168D8
:1003C00020468847BDE8F0872DE9F04F89B0824686
:1003D0008B46002006900790DAF800000690DAF8C5
:1003E00004000790584605F077FB064604F04EFDE2
:1003F00004460D46079805F06FFB804622462B46C3
:1004000005F090F8CDE90201584605F065FB8046FD
:1004100004F0E6FC04460D46069805F05DFB064632
:1004200022462B4605F07EF8CDE90001DDE90223E6
:1004300004F016FECDE9040104F0E0FDCAF8000066
:10044000584605F049FB804604F0CAFC04460D46B8
:10045000079805F041FB064622462B4605F062F858
:10046000CDE90201584605F037FB044604F00EFDC5
:1004700006460F46069880F00044204605F02CFB07
:10048000804632463B4605F04DF8CDE90001DDE9F6
:10049000022304F0E5FDCDE9040104F0AFFDCAF844
:1004A000040009B0BDE8F08F00B5BBB00020399062
:1004B0003A90379038903690359034903390302180
:1004C00027A803F0A3FE00202690259023902490D7
:1004D000219022901F9020901E901D901C901B90A8
:1004E0001A901990189017901690159013901490D8
:1004F0005C480088032801DA3BB000BD5A4890F8F8
:10050000380048B94C48006827904B48C0682A908A
:10051000494880692E901BE052480088401E00EB3D
:100520004000454901EB8000406827904D48008815
:10053000801E00EB400001EB800040682A90494893
:100540000088C01E00EB400001EB800040682E9048
:100550004648C0690290454840680190029905F0FC
:1005600067FD04904148C06902904048406801908E
:10057000029905F05DFD0390049905F051FC069089
:100580003A4880690290394800680190029905F064
:100590004FFD04903548806902903448006801900E
:1005A000029905F045FD0390049905F039FC05908A
:1005B000069905F0BDFA079005F08EFACDE908011D
:1005C00004F0BCFC00224FF08043CDE90A0104F0A6
:1005D000F7FDCDE90C0104F011FD36902348C06B06
:1005E0000290224840680190029905F021FD049094
:1005F0001E48C06B02901D4840680190029905F0AA
:1006000017FD0390049905F00BFC06901748806BCA
:100610000290164800680190029905F009FD0490C7
:100620001248806B0290114800680190029905F011
:10063000FFFC039004991BE06005002040010020AE
:100640004AD8124DFB2109403822CE797CD902C00C
:10065000D8050020000000200000F03FC800002066
:10066000CC7C6540020000208C00002008000020A7
:1006700005F0D6FB0590069905F05AFA079005F0AB
:100680002BFACDE9080104F059FC00224FF0804319
:10069000CDE90A0104F094FDCDE90C0104F0AEFCB3
:1006A0003590FE4880690690FC48006805900699E0
:1006B00005F0BEFC0890F948C0690690F74840680C
:1006C0000590069905F0B4FC0790089905F09EFA8C
:1006D000099005F001FACDE90A0104F06FFACDE9BD
:1006E0000C0104F08BFC3490EC4880690C90EB48D2
:1006F00000680B900C9905F09BFC00210D9005F013
:100700005BFB0DD2349805F0E7F9E54AE54BCDE9FE
:100710000A0104F0A5FCCDE90C0104F06FFC349053
:10072000DE48806B0690DD4800680590069905F06C
:100730007FFC0890D948C06B0690D8484068059067
:10074000069905F075FC0790089905F05FFA099085
:1007500005F0C2F9CDE90A0104F030FACDE90C0147
:1007600004F04CFC3390CD48806B0C90CB48006873
:100770000B900C9905F05CFC00210D9005F01CFB22
:100780000DD2339805F0A8F9C54AC64BCDE90A0148
:1007900004F066FCCDE90C0104F030FC33902A989B
:1007A0000A90279809900A9905F042FC0B9005F0F1
:1007B00093F921F00041CDE90C0104F01FFC1E90DB
:1007C0002E980A90279809900A9905F031FC0B9011
:1007D00005F082F921F00041CDE90C0104F00EFC96
:1007E0001D90369880F0004023901E9805F074F913
:1007F000CDE9060104F0C8FBCDE90A01369805F001
:100800006BF9CDE90801DDE90A2304F0D9FCCDE953
:100810000C0104F0F3FB2490359880F00040219007
:100820001D9805F059F9CDE9060104F0ADFBCDE9BD
:100830000A01359805F050F9CDE90801DDE90A23F0
:1008400004F0BEFCCDE90C0104F0D8FB22901E9808
:1008500005F042F9CDE9060104F018FBCDE90A01E3
:10086000369805F039F9CDE90801DDE90A2304F0ED
:10087000A7FCCDE90C0104F0C1FB26901D9805F002
:100880002BF9CDE9060104F001FBCDE90A01359809
:1008900005F022F9CDE90801DDE90A2304F090FC16
:1008A000CDE90C0104F0AAFB2590349805F014F969
:1008B0007B4A7C4BCDE9080104F032FFCDE90A0107
:1008C00004F09CFB01460D9023A8FFF77DFD3398B3
:1008D00005F002F9724A734BCDE9080104F020FFDC
:1008E000CDE90A0104F08AFB01460D9021A8FFF72B
:1008F0006BFD23980D90694880690C900D9905F067
:1009000017F9399024980D906448C0690C900D999E
:1009100005F00EF93A9021980D906048806B0C908C
:100920000D9905F005F9379022980D905B48C06B42
:100930000C900D9905F0FCF838903998069037988E
:100940000590069905F074FB08903A98069038983F
:100950000590069905F06CFB0790089905F056F98B
:10096000099005F0B9F8CDE90A0104F027F9CDE9BD
:100970000C0104F043FB1C9039980C9037980B90B5
:100980000C9905F055FB00210D9005F015FA0DD2DC
:100990001C9805F0A1F8424A424BCDE90A0104F047
:1009A0005FFBCDE90C0104F029FB1C903998049001
:1009B00037980390049905F03BFB06903998049012
:1009C00037980390049905F033FB0590069905F0DC
:1009D00027FA08903A98049038980390049905F003
:1009E00027FB06903A98049038980390049905F0F4
:1009F0001FFB0590069905F013FA0790089905F07A
:100A000097F8099005F068F8CDE90A0104F096FA24
:100A1000CDE90C0104F0F2FA1990199805F05CF890
:100A2000CDE90601269805F057F800224FF08043E3
:100A3000CDE9020104F076FDCDE90401DDE90623EC
:100A400004F070FDCDE90A012599084605F0E8F9A2
:100A500006901999084605F0E3F90490269908468E
:100A600005F0DEF90390049905F062F80590069907
:100A700005F0DEFA079005F02FF8CDE90801DDE971
:100A80000A2304F09DFBCDE90C0104F0B7FA1B909A
:100A90001B99084605F0C4F906E000000800002094
:100AA0004AD8124DFB2109404FF07E51089005F0C5
:100AB000B4FA099005F010F8CDE90A0104F03EFA05
:100AC000CDE90C0104F09AFA1A901A99269805F0CB
:100AD000A7F91F901B99269805F0A2F920901C9861
:100AE00080F00040079004F0F7FFCF4ACF4BCDE9EC
:100AF000080104F0B5FACDE90A0104F07FFA0146D5
:100B00000D901FA8FFF760FC1F980D9039980C906E
:100B10000D9905F00DF8C649086220980D903A9895
:100B20000C900D9905F004F8C1494862C1488069EC
:100B300006900846006A0590069905F079FA089033
:100B4000BC48C0690690BA48406A0590069905F00D
:100B50006FFA0790089905F059F8099004F0BCFF66
:100B6000CDE90A0104F02AF8CDE90C0104F046FAB7
:100B70001890B04880690C90AD48006A0B900C99B1
:100B800005F056FA00210D9005F016FA0DD21898CE
:100B900004F0A2FFA44AA84BCDE90A0104F060FAD0
:100BA000CDE90C0104F02AFA1890A14890F8380019
:100BB000F0B92A9801460D90189804F0B9FF9C49A5
:100BC000C8610846006A80F0004008620846C069B3
:100BD000099004F081FF944A974BCDE90A0104F093
:100BE0009FFDCDE90C0104F009FA9149C86107E0C5
:100BF0002A9801460D90189805F01AFA8C49C86198
:100C000000208DF841008DF8400008208DF842004A
:100C100002200E908648006ACDF843008448416A5D
:100C2000CDF847100EA9854802F08CFF00200D90EA
:100C300002E00D98401C0D900D986428F9DB03200C
:100C40000E907B48C069CDF843000021CDF84710D5
:100C50000EA97A4802F076FF00BF4DE410B586B0C9
:100C600004460121082001F063F80121880401F005
:100C70006CF84FF48060ADF8140003208DF8160076
:100C800018208DF8170005A96D4800F09BFD4FF462
:100C90000060ADF8140004208DF8170005A968481D
:100CA00000F090FD03208DF801008DF80200012076
:100CB0008DF8030027208DF80000684601F0A5F8A4
:100CC0004FF4E13001900020ADF80800ADF80A00C3
:100CD000ADF80C00ADF810000C20ADF80E000122AC
:100CE00040F22551574800F0DAFB4021554800F00A
:100CF000BCFC01A9534800F03AFB0121514800F027
:100D0000C2FB06B010BD10B54FF4E130FFF7A6FFEF
:100D1000032001F034F9464908698047142001F0A6
:100D20002EF901204249887610BD10B5002407E055
:100D3000454A115D3E4A106800F01FFC601C84B2F9
:100D40004148005D0028F3D110BD10B5002438489B
:100D5000807E00B910BD08E03B4A163A115D344A66
:100D6000106800F00AFC601C84B237481638005D39
:100D70000028F1D100BFEDE710B5002408E0324AA9
:100D8000921F115D2A4A106800F0F7FB601C84B2C4
:100D90002D48801F005D0028F1D110BD10B5002442
:100DA00040F22551274800F09DFC264800F0F3FB57
:100DB000C4B20A2C27D1254890F90000401C19D153
:100DC0002348008840F21341884207DB204800880E
:100DD000C91C884202DC16498868804700201C49EB
:100DE00008801C490880012018490870104948698A
:100DF000804718E016480088401E15490880FF20EB
:100E0000124908700FE00D2C0DD0A4F130001249EA
:100E10000F4A128888540E480088401C0C490880EC
:100E200001200A49087010BD4AD8124DFB21F93F34
:100E30008C00002008000020FB21094000640040D5
:100E4000000C014000480040860000206C0000209B
:100E500000000020020000204001002008B5012110
:100E6000042000F072FF0121192000F061FF4FF40F
:100E70004070ADF8000018208DF8030003208DF8B5
:100E800002006946324800F09DFC08BD00B587B0FD
:100E9000FFF7E4FF44F62060ADF814004720ADF8FA
:100EA00010000020ADF81600ADF8120004A9294882
:100EB00001F018FA6020ADF800000020ADF808003D
:100EC0000120ADF8020040F29650ADF806006946E8
:100ED000204801F01EFB08211E4801F0AEFE012152
:100EE0001C4801F05BFE01211A4801F063FD01215D
:100EF000184801F053FD07B000BD2DE9F0478146C9
:100F00001548007C08B9BDE8F0871348C0F8049084
:100F10000024484604F0E0FD07464FF066320F4BD0
:100F200004F000FB054604F0A3FA00F2965084B2E8
:100F300040F24160844201DD044604E040F2EB40AF
:100F4000844200DA044604480068048000BFDAE7FF
:100F5000000C014000080040C800002066660E40FA
:100F600008B54FF4C06000F04BFF0B208DF8000077
:100F700000208DF801008DF8020001208DF803009B
:100F8000684600F042FF08BD00B591B00121084657
:100F900000F0C1FE0121480200F0CAFE7A4802F0CA
:100FA00003FA7A4806907A480790002008900220B9
:100FB000099000200A9080200B9040000C90800047
:100FC0000D9020200E9000020F900020109006A996
:100FD0006D4802F08BFA012202216B4802F0BDFA43
:100FE0000121694802F0ADFA0020019001208DF83E
:100FF00008008DF809004FF4602003900020049051
:1010000002208DF8140001A960484C3801F0CBFF94
:101010004FF4404000F0F3FD052301220A215B4814
:101020004C3802F058F8052302220B2157484C385F
:1010300002F051F8012155484C3801F0EBFF012135
:1010400052484C3801F0DBFF50484C3801F0F9FFB2
:1010500000BF4E484C3801F0F9FF0028F9D14B4849
:101060004C3801F0FDFF00BF48484C3801F0FDFF4F
:101070000028F9D1012145484C3802F000F811B0A0
:1010800000BD08B5012140F2112000F051FE012100
:10109000404800F066FC0120ADF8000000208DF80B
:1010A000030069463C4800F08DFB0220ADF80000CB
:1010B00000208DF803006946374800F083FB08BD27
:1010C00010B5FFF7DEFFFFF75FFFFFF749FF10BD29
:1010D00010B5022002F06EFA002854D0022002F06F
:1010E0007CFA2E480078401C2C4908702849088852
:1010F00004F04EFE04462A480168204604F018FD1C
:10110000274908602249488804F042FE04462548E1
:101110000168204604F00CFD224908601F48007851
:10112000642830D120491E48006804F06FFD1F4933
:1011300008601D491B48006804F068FD1C490860F0
:101140001C491A48006804F037FE03D209201A49E6
:1011500008700CE017491648006804F02DFE03D211
:101160000B201549087002E00A2013490870134843
:1011700001218268104890470020084908700849FA
:1011800008600849086010BD080002404C24014076
:10119000FC0000203000140000100140E800002096
:1011A000EC000020F00000200000C842F400002005
:1011B000F80000200080D444DC0000200001002062
:1011C00010B586B004460121880400F0BEFD01215F
:1011D000414800F0C6FB414800F086F827208DF812
:1011E00004004FF4A06000F00BFE03208DF8050012
:1011F0008DF8060001208DF8070001A800F005FE1B
:1012000002940020ADF80C00ADF80E00ADF810000F
:10121000ADF814000C20ADF8120002A92F4800F020
:10122000A6F8012240F225512C4800F038F940215F
:101230002A4800F01AFA0121284800F024F906B0E3
:1012400010BD08B5012140F2112000F071FD01210F
:101250002148203000F085FB4FF48060ADF800009D
:1012600003208DF8020018208DF8030069461C4801
:1012700000F0A8FA4FF40060ADF8000004208DF8EB
:1012800003006946164800F09DFA08BD10B5FFF747
:10129000D8FF4FF4E130FFF793FF10BD70B505465E
:1012A0000E46002400BF05E0295D0C4800F065F9FA
:1012B000601CC4B2B442F7DB70BD10B50948007CB5
:1012C00000B910BDFF21054800F057F9FF21034880
:1012D00000F053F900BFF4E710001400004800408C
:1012E000001001400001002010B50446F748844278
:1012F00009D10121880300F035FD00214FF4804021
:1013000000F030FD32E0F248844209D10121480466
:1013100000F035FD00214FF4003000F030FD25E0F5
:10132000EC48844209D10121880400F028FD002105
:101330004FF4802000F023FD18E0E748844209D1F3
:101340000121C80400F01BFD00214FF4002000F033
:1013500016FD0BE0E148844208D10121080500F0A8
:101360000EFD00214FF4801000F009FD10BD2DE9A5
:10137000F04786B005460E460024A24600BFA146AF
:101380000027B08900B100BF2F462C8A4CF6FF70B1
:101390000440F08804432C82AC894EF6F3100440DC
:1013A000B08831890843718908430443AC81AC8A11
:1013B0004FF6FF400440B0890443AC8201A800F01E
:1013C0004AFCC248874202D1DDF810A001E0DDF8F6
:1013D0000CA0A88910F4004F08D00AEBCA0000EB5B
:1013E0000A1031684900B0FBF1F807E00AEBCA00C7
:1013F00000EB0A1031688900B0FBF1F86420B8FBFB
:10140000F0F004012009642101FB1089A88910F47F
:10141000004F08D0322000EBC900B0FBF1F000F023
:101420000700044308E0322000EB09106421B0FB00
:10143000F1F000F00F0004432C8106B0BDE8F08706
:101440004FF41651016000218180C18001810C217F
:10145000418100218181704710B502460020108A29
:101460004FF2FF0318400B884C8823438C8823439A
:10147000CC8823431843108210BD00210180418095
:101480008180C180704721B1828942F400528281FB
:1014900004E082894DF6FF731A4082817047F0B5EF
:1014A00003460024002600250020A1F510676A3FAE
:1014B00000D100BF1846C1F3421401F01F060127F6
:1014C00007FA06F5012C01D10C3004E0022C01D101
:1014D000103000E014301AB107682F43076002E0B3
:1014E0000768AF430760F0BD1AB1838A0B4383825C
:1014F00002E0838A8B4383827047028A4FF6F0733F
:101500001A400282028A0A430282704782894FF29D
:10151000FF731A40828182890A438281704721B118
:10152000828942F00202828104E082894FF6FD73D3
:101530001A4082817047028A4FF6DF731A40028296
:10154000028A0A430282704721B1028A42F4804231
:10155000028204E0028A4BF6FF731A40028270474F
:1015600002460020B1F5007F00D100BF13880B4276
:1015700001D0012000E00020704730B504460D4640
:10158000C5F30800A08000BF80212046FFF7E8FFD8
:101590000028F9D030BD01468888C0F308007047A4
:1015A000818941F0010181817047028BD2B20283AF
:1015B000028B42EA012202837047028B02F47F42CF
:1015C0000283028B0A430283704721B1828A42F070
:1015D0002002828204E0828A4FF6DF731A40828200
:1015E000704721B1828A42F01002828204E0828A2E
:1015F0004FF6EF731A408282704721B1828A42F01F
:101600000802828204E0828A4FF6F7731A408282CF
:10161000704721B1828942F40042828103E08289CD
:10162000C2F30E028281704721B1828A42F40062C5
:10163000828204E0828A4FF2FF731A4082827047EE
:10164000828A4FF6FB731A408282828A0A43828220
:10165000704721B1828A42F00202828204E0828ACB
:101660004FF6FD731A408282704701F40072B2F5A2
:10167000007F00D100BFCA430280704770B50246A8
:101680000024002300250020A1F510666A3E00D149
:1016900000BFC1F3421501F01F03012606FA03F350
:1016A000012D02D19689334006E0022D02D1168A1F
:1016B000334001E0968A33400C12012606FA04F406
:1016C0001688344063B15CB101200AE00038014063
:1016D0000044004000480040004C004000500040E2
:1016E000002070BD10B500220023A1F510646A3CF3
:1016F00000D100BF0A1201249440A3B2DC4304804D
:1017000010BD000010B50446CA48844208D101212A
:10171000042000F027FB0021042000F023FB46E01A
:10172000C548844208D10121082000F01BFB00219C
:10173000082000F017FB3AE0C048844208D101219C
:10174000102000F00FFB0021102000F00BFB2EE01A
:10175000BB48844208D10121202000F003FB002176
:10176000202000F0FFFA22E0B648844208D101218F
:10177000402000F0F7FA0021402000F0F3FA16E0D4
:10178000B148844208D10121802000F0EBFA002109
:10179000802000F0E7FA0AE0AC48844207D101213A
:1017A000801500F0DFFA0021A01500F0DBFA10BD73
:1017B00010B50121084600F0D5FA0021012000F003
:1017C000D1FA10BD2DE9F041024600250026002087
:1017D00000230024002791F803C00CF00F0591F8B6
:1017E00003C01CF0100F03D091F802C04CEA0505AD
:1017F00091F800C0BCF1000F31D0146800202BE03C
:101800004FF0010C0CFA00F3B1F800C00CEA03062B
:101810009E4220D183004FF00F0C0CFA03F7BC431B
:1018200005FA03FC4CEA040491F803C0BCF1280F4C
:1018300006D14FF0010C0CFA00FCC2F814C00AE00B
:1018400091F803C0BCF1480F05D14FF0010C0CFA20
:1018500000FCC2F810C0401C0828D1D31460B1F8B5
:1018600000C0BCF1FF0F34DD546800202EE000F111
:10187000080C4FF0010808FA0CF3B1F800C00CEAAC
:1018800003069E4221D183004FF00F0C0CFA03F7A0
:10189000BC4305FA03FC4CEA040491F803C0BCF114
:1018A000280F05D100F1080C08FA0CF8C2F81480D2
:1018B00091F803C0BCF1480F07D100F1080C4FF0BC
:1018C000010808FA0CF8C2F81080401C0828CED392
:1018D0005460BDE8F0814FF6FF71018002218170F4
:1018E0000421C17070470246002093680B4201D06A
:1018F000012000E0002070470146886880B27047F0
:1019000002460020D3680B4201D0012000E00020F5
:1019100070470146C86880B27047016170474161F5
:1019200070470AB1016100E041617047C1607047D2
:101930004FF480320A4382618161826182698269E7
:10194000704702460020424B18684FF680731840DB
:1019500040EA021008433E4B186070473D49C86199
:101960007047F0B50A46002300240021002500F04E
:101970000046B6F1004F02D1354EF16901E0344E18
:101980007168C0F3034583B200F44016B6F5401FFA
:1019900008D121F070612E4E766826F070662C4FCB
:1019A0007E6012E000F48016B6F5801F06D1032693
:1019B00006FA05F4A14341F0706106E0460D3601D8
:1019C00003FA06F6B14341F0706122B1460D3601CB
:1019D00003FA06F6314300F00046B6F1004F02D19B
:1019E0001B4EF16101E01A4E7160F0BD30B500226E
:1019F0008B071C0F0F2303FA04F2154B08338C10CE
:101A000053F824309343124C08348D1044F8253099
:101A100023468C1053F824308C07240F00FA04F46A
:101A200023430B4C08348D1044F8253030BD0A494F
:101A30000860704700080140000C014000100140A0
:101A40000014014000180140001C0140002001402A
:101A50000000014000002042DC002042DD48006818
:101A600040F00100DB49086008464068DA49084058
:101A7000D849486008460068D8490840D5490860F8
:101A80000846006820F4802008600846406820F47A
:101A9000FE0048604FF41F0088607047CD49096818
:101AA00021F48031CB4A11601146096821F480216C
:101AB0001160B0F5803F03D0B0F5802F0ED106E065
:101AC000C449096841F48031C24A116007E0C14944
:101AD000096841F4A021BF4A116000E000BF00BFC7
:101AE000704710B501460022002300204A11012A48
:101AF00002D1B84C236806E0022A02D1B54C236A11
:101B000001E0B44C636A01F01F02012494401C42BE
:101B100001D0012000E0002010BD38B50020009069
:101B20000024002500BF3120FFF7DBFF05460098A9
:101B3000401C00900098B0F5A06F01D0002DF2D0AD
:101B40003120FFF7CEFF08B1012400E00024204639
:101B500038BD014600209F4A106820F0F80040EA96
:101B6000C100106070479E4908607047024600201F
:101B7000984B586820F47C1042EA01031843954BB7
:101B80005860704796490866704701460020914AA0
:101B9000506820F003000843506070478D4840684B
:101BA00000F00C007047014600208A4A506820F07F
:101BB000F00008435060704701460020854A506895
:101BC00020F4E06008435060704701460020814ADD
:101BD000506820F4605040EAC1005060704729B15D
:101BE0007C4A527A02437B4B5A7204E0794A527A19
:101BF0008243784B5A7270477A49086070470146B1
:101C00000020744A506820F44040084350607047F8
:101C10000021754A11706F4A82F82010012802D005
:101C2000042808D103E001216F4A117004E0052166
:101C30006D4A117000E000BF00BF70476B4908603B
:101C400070476449096A0143624A116270476749F3
:101C500044390860704730B5002100220024002379
:101C60005C4D6D6805F00C0121B1042905D00829EF
:101C700023D105E05E4D056022E05D4D05601FE06B
:101C8000544D6D6805F47012524D6D6805F4803442
:101C9000022505EB92421CB9564D554305600BE0F9
:101CA0004C4D6D6815F4003F03D0524D554305600F
:101CB00002E04F4D5543056002E04D4D056000BF09
:101CC00000BF444D6D6805F0F00109094A4D6B5C99
:101CD0000568DD4045603F4D6D6805F4E061090A27
:101CE000454D6B5C4568DD4085603A4D6D6805F497
:101CF0006051C90A404D6B5C4568DD40C560354D9B
:101D00006D6805F44041890B3C4D6B5CC568B5FBC3
:101D1000F3F5056130BD29B12E4A526902432D4BBE
:101D20005A6104E02B4A526982432A4B5A61704738
:101D300029B1284A92690243264B9A6104E0254A58
:101D400092698243234B9A61704729B1214AD26933
:101D50000243204BDA6104E01E4AD26982431D4BE4
:101D6000DA61704729B11B4AD2680243194BDA6025
:101D700004E0184AD2688243164BDA60704729B1F2
:101D8000144A12690243134B1A6104E0114A1269A2
:101D90008243104B1A6170471449403908607047FC
:101DA0000F49C86470470B49C87170470948406AB9
:101DB00040F0807007494862704701460020054A9C
:101DC00092680A4201D0012000E0002070470149DA
:101DD00088727047001002400000FFF8FFFFF6FE17
:101DE00000004242D8004242201002408004424299
:101DF00000127A0000093D00140100202401002097
:101E000031490143314A1160704770B50021002308
:101E10000F22C4780CB32D4C246804F4E064C4F59C
:101E2000E064210AC1F10403CA40447804FA03F1D2
:101E30008478144021430901254C0678A155047883
:101E400004F01F050124AC4005786D114FF0E02629
:101E500006EB8505C5F8004109E0047804F01F058C
:101E60000124AC401B4D0678761145F8264070BD24
:101E7000194A0A400243154B1B1F1A60704739B1BB
:101E8000124A121D12680243104B1B1D1A6006E015
:101E90000E4A121D126882430C4B1B1D1A607047BC
:101EA000042808D14FF0E021096941F004014FF006
:101EB000E022116107E04FF0E021096921F00401FF
:101EC0004FF0E022116170470000FA050CED00E0D0
:101ED00000E400E080E100E080FFFF1F10B5002873
:101EE00007DA0A07140E2D4A00F00F031B1FD45403
:101EF00003E00A07130E2A4A135410BD10B52948EF
:101F000000684FF4FA71B0FBF1F4B4F1807F01D3B3
:101F1000012011E024F07F40401E4FF0E021486195
:101F20000F214FF0FF30FFF7D9FF00204FF0E021E5
:101F3000886107200861002008B100BFFEE74FF468
:101F4000C060FFF75DFF0021481EFFF7C7FF10BD0F
:101F50001548006820B114480068401E1249086006
:101F6000704700B5FFF7F4FF00BD01B50E490098BA
:101F7000086000BF0C4800680028FBD108BD01B50F
:101F800009490098086000BF074800680028FBD195
:101F900008BD00E0401E0028FCD1704718ED00E0AD
:101FA00000E400E02C0100202801002008B50121F8
:101FB0000846FFF7BDFE01210420FFF7B9FE4FF4EC
:101FC0000060ADF8000048208DF8030069465848CD
:101FD000FFF7F8FB4FF48050ADF8000018208DF8A3
:101FE000030003208DF8020069465148FFF7EAFB21
:101FF00008BD00B587B04F4801F012FC04A801F0FD
:1020000033FD00208DF816008DF817008DF81800AC
:102010008DF819008DF81A008DF81B008DF812004C
:102020008DF813000B208DF8140002208DF8150098
:102030000920ADF8100004A93E4801F00AFC002078
:102040008DF80A008DF80B0001208DF80C0000209F
:10205000ADF80000ADF80200ADF80400ADF80600E0
:10206000ADF8080001208DF80D00684601F07BFCFA
:1020700007B000BD08B501214806FFF766FE142031
:102080008DF8000003208DF8010000208DF802007B
:1020900001208DF803006846FFF7B7FE13208DF886
:1020A000000003208DF8010000208DF802000120BF
:1020B0008DF803006846FFF7A8FEFFF777FFFFF7EC
:1020C00098FF01220E211B4801F04CFF01227021D4
:1020D000184801F047FF00220121164801F042FF95
:1020E00008BD00B585B00421124802F03CF86A46EC
:1020F0000021104801F01BFE0098012806D19DF830
:102100000B000D4981F838004869804705B000BDD3
:1021100000B585B06A460121064801F008FE05B009
:1021200000BD10B504462146024801F00BFD10BD6C
:1021300000080140006400408C00002010B50446F7
:10214000FE48844208D10121C014FFF70BFE002194
:10215000E014FFF707FEC4E0B4F1804F08D101217D
:102160000846FFF70CFE00210120FFF708FEB8E04B
:10217000F348844208D101210220FFF700FE00212C
:102180000220FFF7FCFDACE0EE48844208D10121BB
:102190000420FFF7F4FD00210420FFF7F0FDA0E08C
:1021A000E948844208D101210820FFF7E8FD002119
:1021B0000820FFF7E4FD94E0E448844208D10121BF
:1021C0001020FFF7DCFD00211020FFF7D8FD88E08C
:1021D000DF48844208D101212020FFF7D0FD0021F3
:1021E0002020FFF7CCFD7CE0DA48844208D10121B1
:1021F0004014FFF7B7FD00216014FFF7B3FD70E056
:10220000D548844209D10121C804FFF7ABFD002164
:102210004FF40020FFF7A6FD63E0D048844209D1C7
:1022200001210805FFF79EFD00214FF48010FFF704
:1022300099FD56E0CA48844209D101214805FFF7BB
:1022400091FD00214FF40010FFF78CFD49E0C548D7
:10225000844208D101214020FFF791FD0021402058
:10226000FFF78DFD3DE0C048844208D10121802068
:10227000FFF785FD00218020FFF781FD31E0BB489D
:10228000844208D101218015FFF779FD0021A015B6
:10229000FFF775FD25E0B648844209D10121080405
:1022A000FFF760FD00214FF48030FFF75BFD18E081
:1022B000B048844209D101214804FFF753FD0021B1
:1022C0004FF40030FFF74EFD0BE0AB48844208D1DD
:1022D00001218804FFF746FD00214FF48020FFF71D
:1022E00041FD10BD00220288944B98420ED0994BBC
:1022F00098420BD0B0F1804F08D0914B984205D056
:10230000904B984202D0904B984204D14FF68F7375
:102310001A404B881A438D4B984207D08C4B9842F9
:1023200004D04FF6FF431A40CB881A4302808B88B3
:1023300083850B880385814B98420BD0854B98424F
:1023400008D08B4B984205D08A4B984202D08A4BDA
:10235000984201D10B7A038601238382704770B5BE
:10236000002400220023058C4FF6FE7635400584BC
:10237000028C8388048B4FF68F752C40B51E2C4041
:102380000D882C43751E2A400D892A434D882A4307
:102390006A4DA8420BD06F4DA84208D0744DA84298
:1023A00005D0744DA84202D0734DA84213D14FF608
:1023B000F7752A404D892A434FF6FB752A408D88D0
:1023C0002A434FF6FF652B404FF6FF552B408D8972
:1023D0002B43CD892B4383800483CD88858602845B
:1023E00070BD70B5002400220023058C4FF6EF76F7
:1023F00035400584028C8388048B48F6FF752C4099
:102400004FF6FF452C400D884FF6FF7606EA05256E
:102410002C434FF6DF752A400D8906EA05152A433D
:102420004D8806EA05152A43444DA84202D0494D7D
:10243000A8421DD14FF67F752A404D894FF6FF7691
:1024400006EA05152A434FF6BF752A408D8806EA2D
:1024500005152A434FF6FF352B404FF2FF752B40F1
:102460008D8906EA85052B43CD8906EA85052B4330
:1024700083800483CD880587028470BD70B50024F5
:1024800000220023058C4FF6FF6635400584028C40
:102490008388848B4FF68F752C404FF6FC752C404B
:1024A0000D882C434FF6FF552A400D894FF6FF76D5
:1024B00006EA05252A434D8806EA05252A431F4DCD
:1024C000A84202D0234DA8421DD14FF2FF752A40E9
:1024D0004D894FF6FF7606EA05252A434FF6FF356C
:1024E0002A408D8806EA05252A434EF6FF752B40C3
:1024F0004DF6FF752B408D8906EA05152B43CD89D6
:1025000006EA05152B4383808483CD888587028462
:1025100070BD70B5002200230024058C4EF6FF76B6
:1025200035400584038C8488828B48F6FF752A40E9
:102530004FF6FF452A400D8820E00000002C0140A6
:102540000004004000080040000C00400010004063
:102550000014004000340140004C01400050014094
:102560000054014000180040001C004000200040C2
:102570000040014000440140004801404FF6FF7612
:1025800006EA05252A434DF6FF752B400D8906EA1C
:1025900005352B434D8806EA05352B43FA4DA842F5
:1025A00002D0FA4DA84208D14BF6FF752C408D8918
:1025B0004FF6FF7606EA85152C4384808283CD880A
:1025C000A0F84050038470BD828B4FF2FF331A4055
:1025D0008283828B4FF6FF7303EA01231A438283BF
:1025E0007047F0B50C461546002200210026078CE6
:1025F0004EF6FF7C07EA0C070784828B018C4FF6AE
:10260000FF7707EA043640F6FF473A404FF6FF7778
:1026100007EA05273A434FF6FF7707EA03373A43BD
:10262000D94FB8420ED0D94FB8420BD0B0F1804F3D
:1026300008D0D74FB84205D0D64FB84202D0D64FB7
:10264000B84206D14DF6FF77394046F480573943FA
:1026500005E047F6FF57394044F4805739438283F9
:102660000184F0BD828B4FF6F3731A408283828B14
:102670000A4382837047F0B50C46154600220021BC
:102680000026078C4FF6FF6C07EA0C070784828B45
:10269000018C4FF6FF7707EA04264FF60C773A4095
:1026A0004FF6FF7707EA03172F433A43B64FB84276
:1026B0000ED0B64FB8420BD0B0F1804F08D0B44F17
:1026C000B84205D0B34FB84202D0B34FB84206D19A
:1026D0004FF6FF57394046F48077394305E04FF213
:1026E000FF57394044F48077394382830184F0BD39
:1026F000028B4FF2FF331A400283028B4FF6FF73B7
:1027000003EA01231A4302837047F0B50C461546CD
:10271000002200210026078C4FF6EF7C07EA0C0709
:102720000784028B018C4FF6FF7707EA041640F608
:10273000FF473A404FF6FF7707EA03373A434FF631
:10274000FF7707EA05273A438F4FB8420ED08F4FE5
:10275000B8420BD0B0F1804F08D08D4FB84205D0B1
:102760008C4FB84202D08C4FB84206D14FF6DF777B
:10277000394046F01007394305E04FF65F7739409E
:1027800044F01007394302830184F0BD028B4FF6F9
:10279000F3731A400283028B0A4302837047F0B539
:1027A0000C46154600220021068C4FF6FE773E406F
:1027B0000684028B018C4FF60C7632407E1C06EAB2
:1027C00003162E433243704EB0420ED06F4EB042CD
:1027D0000BD0B0F1804F08D06D4EB04205D06D4E99
:1027E000B04202D06C4EB04206D14FF6FD76314079
:1027F00044F00106314305E04FF6F576314044F0F0
:102800000106314302830184F0BD70B505460C46D4
:102810005D4885420ED05D4885420BD0B5F1804FB2
:1028200008D05B48854205D05A48854202D05A48B4
:10283000854200D100E000BF208850B92389A288DA
:1028400061882846FFF7ABFFE1882846FFF79EFF27
:1028500025E0208804280AD12389A2886188284697
:10286000FFF753FFE1882846FFF742FF17E0208873
:1028700008280AD12389A28861882846FFF7FBFE31
:10288000E1882846FFF7EEFE09E02389A2886188E7
:102890002846FFF7A6FEE1882846FFF795FE70BDA3
:1028A0002DE9F04105460C4600260127608808B94D
:1028B000022600E00026A088012801D1022700E0BE
:1028C00001272088A0B92389A28861882846FFF7BC
:1028D00066FFE1882846FFF759FF23893A463146CB
:1028E0002846FFF712FFE1882846FFF701FF13E0B3
:1028F0002389A28861882846FFF707FFE1882846D8
:10290000FFF7F6FE23893A4631462846FFF747FF90
:10291000E1882846FFF73AFFBDE8F0810A884B8836
:102920001A438B881A43CB881A430B891A434B8965
:102930001A438B891A43A0F8442070474FF6FF7161
:10294000818000210180C180418001727047002197
:10295000018041808180C180018141818181C1816B
:102960007047002101804180012181800021C180C8
:10297000018170470021018041808180C1800181F7
:102980004181818170470000002C014000340140EA
:102990000004004000080040000C004021B1028803
:1029A00042F00102028004E002884FF6FE731A40F2
:1029B0000280704731B1B0F8442042F40042A0F8E0
:1029C000442005E0B0F84420C2F30E02A0F84420F1
:1029D00070471AB183890B43838102E083898B435B
:1029E000838170478182704741EA0203A0F8483032
:1029F00070471AB183890B43838102E083898B433B
:102A00008381704701894FF6F87211400181704748
:102A10000A46002101894FF68F7319401143018145
:102A2000704730B504460D4629462046FFF7F0FFB3
:102A3000208940F00700208130BD2DE9F041044697
:102A40000D4616461F46602D06D13B4601223146F3
:102A50002046FFF75AFE05E03B460122314620465C
:102A6000FFF79DFE29462046FFF7D2FF208940F060
:102A700007002081BDE8F08130B50C4600210189B6
:102A8000C9B24FF6FF7505EA0325154325432943CF
:102A9000018130BD2DE9F04105460E4617469846A6
:102AA000002443463A4631462846FFF7E5FF2C8985
:102AB0004FF6F870044044F007044FF68F7004405E
:102AC00044F070042C81BDE8F081F0B504460D4659
:102AD00016461F463B46324629462046FFF7CCFFA6
:102AE000208940F480402081F0BD018582827047BA
:102AF0000A46002101884FF68F7319401143018067
:102B00007047F0B50C4615461E46002100220023F2
:102B10000189028B038C4FF6F877394021434FF639
:102B2000FC473A4040F201173A434FF6DD773B400D
:102B30004FF6FF7707EA06172F433B4301810283D5
:102B40000384F0BD0A460021018B4FF68F731940B4
:102B50001143018370470A460021018B48F6FF7339
:102B600019404FF6FF7303EA0223194301837047AC
:102B70000A460021818B4FF68F73194011438183E0
:102B800070470A460021818B48F6FF7319404FF6C3
:102B9000FF7303EA022319438183704721B102883E
:102BA00042F08002028004E002884FF67F731A40F0
:102BB0000280704721B1828842F00402828004E0E2
:102BC00082884FF6FB731A408280704721B1828859
:102BD00042F00802828004E082884FF6F7731A40C0
:102BE0008280704721B1828842F00102828004E035
:102BF00082884FF6FE731A40828070470A46002191
:102C0000018B4FF6F77319401143018370470A4651
:102C10000021018B4FF2FF7319404FF6FF7303EA57
:102C200002231943018370470A460021818B4FF626
:102C3000F77319401143818370470A460021818B45
:102C40004FF2FF7319404FF6FF7303EA0223194353
:102C5000818370470A460021018B4FF6FB731940B0
:102C60001143018370470A460021018B4FF6FF3361
:102C700019404FF6FF7303EA02231943018370479B
:102C80000A460021818B4FF6FB7319401143818363
:102C900070470A460021818B4FF6FF3319404FF6EB
:102CA000FF7303EA02231943818370470A46002118
:102CB000018B4FF67F7319401143018370470A4619
:102CC0000021018BC1F30E014FF6FF7303EA0223CB
:102CD0001943018370470A460021818B4FF67F73A9
:102CE00019401143818370470A460021818BC1F34B
:102CF0000E014FF6FF7303EA0223194381837047E5
:102D00000A460021018C4FF6FD73194011430184DE
:102D100070470A460021018C4FF6F77319401143A2
:102D2000018470470A460021018C4FF6DF73194079
:102D30004FF6FF7303EA02131943018470470A46F2
:102D40000021018C4FF67F7319404FF6FF7303EAA1
:102D500002131943018470470A460021018C4FF683
:102D6000FF5319404FF6FF7303EA0223194301840E
:102D700070470A460021018C4FF2FF7319404FF64D
:102D8000FF7303EA02231943018470470A460021B6
:102D9000018C4DF6FF7319404FF6FF7303EA0233BF
:102DA00019430184704730B5002301248C40A3B23D
:102DB000048C9C430484048C02FA01F5ADB22C43CC
:102DC000048430BD30B5002304248C40A3B2048CAD
:102DD0009C430484048C02FA01F5ADB22C430484B4
:102DE00030BD70B503460020002418461830012578
:102DF0008D40ACB21D8CA5431D8409B1082909D1B1
:102E000000EB6100056825F0700505600568154355
:102E100005600EE00D1FC5F34E052844056825F436
:102E2000E045056005684FF6FF7606EA0226354361
:102E3000056070BD21B1028842F00202028004E008
:102E400002884FF6FD731A400280704721B1028854
:102E500042F00402028004E002884FF6FB731A403D
:102E60000280704721B1828842F08002828004E0B3
:102E700082884FF67F731A408280704702884FF62F
:102E8000F7731A40028002880A43028070478288E2
:102E90004FF68F731A40828082880A43828070477F
:102EA00002894FF6F8731A40028102890A430281AF
:102EB000704702894FF67F731A40028102890A43E4
:102EC0000281704781847047818570478186704791
:102ED0000187704781877047A0F8401070470288CB
:102EE0004FF6FF431A40028002880A43028070476F
:102EF0000146888E70470146088F70470146888FCB
:102F000070470146B1F8400070470146888C704711
:102F10000146088D704702460020138A0B4201D0FB
:102F2000012000E000207047CA430282704730B59C
:102F30000246002000230024158A05EA0103958932
:102F400005EA010413B10CB1012000E0002030BDFE
:102F5000CA4302827047000010B50446FA48844212
:102F600008D101214015FEF7FDFE00216015FEF796
:102F7000F9FE17E0F548844208D101210015FEF75B
:102F8000F1FE00212015FEF7EDFE0BE0F048844233
:102F900008D10121C803FEF7E5FE00214FF40040EF
:102FA000FEF7E0FE10BD30B5024600200023506859
:102FB000E84C20400D790C6844EA05242043506019
:102FC0009068E54C2040D1E902542C434D7944EA05
:102FD000450420439060D06A20F470000C7C641E8D
:102FE000E4B2234340EA0350D06230BD00210160C7
:102FF000017141718160C16001210174704721B18B
:10300000826842F00102826003E0826822F00102DD
:103010008260704721B1826842F48072826003E06E
:10302000826822F480728260704710B50023CBB2B0
:103030001AB144681C43446002E044689C43446005
:1030400010BD816841F00801816070470146002091
:103050008A6812F0080F01D0012000E000207047BC
:10306000816841F0040181607047014600208A6850
:1030700012F0040F01D0012000E00020704721B1C0
:10308000826842F4A002826003E0826822F4A00217
:1030900082607047014600208A6812F4800F01D0D8
:1030A000012000E00020704710B50A4600210023EF
:1030B000416821F46041531E41EA4331416010BD33
:1030C00021B1426842F40062426003E0426822F4A7
:1030D000006242607047F0B504460D4600200021B2
:1030E000092D11DDE068A5F10A0606EB4607072663
:1030F00006FA07F18843A5F10A0606EB460603FA2D
:1031000006F10843E0600CE0206905EB450707265F
:1031100006FA07F1884305EB450603FA06F1084372
:103120002061072A0FDA606B561E06EB86071F2602
:1031300006FA07F18843561E06EB860605FA06F1E5
:103140000843606322E00D2A0FDA206BD61F06EBDE
:1031500086071F2606FA07F18843D61F06EB860668
:1031600005FA06F10843206310E0E06AA2F10D06BB
:1031700006EB86071F2606FA07F18843A2F10D0623
:1031800006EB860605FA06F10843E062F0BD21B1C0
:10319000826842F48012826003E0826822F4801226
:1031A000826070470146C86C80B2704766484C30F8
:1031B0000068704721B1426842F48062426003E0D7
:1031C000426822F480624260704721B1426842F452
:1031D0008052426003E0426822F4805242607047AD
:1031E0000A460021816821F4E04111438160704763
:1031F00021B1826842F40042826003E0826822F4D6
:1032000000428260704721B1826842F402128260FB
:1032100003E0826822F402128260704701460020B7
:103220008A6812F4001F01D0012000E000207047DE
:10323000F0B504461546002000220026092911DDBC
:10324000E068A1F10A0707EB470C072707FA0CF221
:103250009043A1F10A0707EB470703FA07F210436F
:10326000E0600CE0206901EB410C072707FA0CF243
:10327000904301EB410703FA07F210432061A06B72
:10328000C0F30156EF1C06F1010CA7EB0C0707EB8E
:10329000870C1F2707FA0CF29043EF1C06F1010C74
:1032A000A7EB0C0707EB870701FA07F21043A063AF
:1032B000F0BD10B50A4600210023816B21F44011B6
:1032C000531E41EA0351816310BD08B500230093EA
:1032D0000090009B0B440093009B1A6008BD08B54A
:1032E000024600200090009201F12800009B184443
:1032F00000900098006880B208BD0A46002141682D
:10330000164B194011434160704741628262704719
:103310000A460021416821F01F01114341607047B6
:1033200040B109490831096841F40001064A0832F0
:10333000116007E004490831096821F40001024ADC
:10334000083211607047000000240140002801404D
:10335000003C0140FFFEF0FFFDF7F1FFFFFD3FFFE6
:103360000246002013680B4201D0012000E000203B
:103370007047CA430260704770B5024600200023C0
:1033800000240B125568CEB205EA060415681D42EA
:1033900002D00CB1012000E0002070BD00220A1212
:1033A000D34303607047000001684FF6FE7211407E
:1033B00001600021016041608160C1608C498842E8
:1033C00008D18B490839496841F00F01884A083A09
:1033D00051608AE086491431884208D1844908390D
:1033E000496841F0F001824A083A51607DE0804925
:1033F0002831884208D17E490839496841F4706112
:103400007B4A083A516070E079493C31884208D1E2
:1034100077490839496841F47041754A083A516062
:1034200063E073495031884208D1714908394968CD
:1034300041F470216E4A083A516056E06C4964319B
:10344000884208D16A490839496841F47001684ADC
:10345000083A516049E066497831884208D16449A8
:103460000839496841F07061614A083A51603CE0AE
:103470006049884206D1011F096841F00F01021F0F
:10348000116032E05B491431884208D15949091F63
:10349000096841F0F001574A121F116025E05549B3
:1034A0002831884208D15349091F096841F47061E5
:1034B000504A121F116018E04E493C31884208D131
:1034C0004C49091F096841F470414A4A121F1160B2
:1034D0000BE048495031884207D14649091F096825
:1034E00041F47021434A121F1160704710B5002249
:1034F000026847F6F0739A430C6A8B6823430C69A1
:1035000023434C6923438C692343CC6923434C6A8E
:1035100023438C6A23431A430260CB6843600B68E1
:1035200083604B68C36010BD002101604160816011
:10353000C160016141618161C16101624162816279
:10354000704721B1026842F00102026004E00268A3
:103550004FF6FE731A40026070471AB103680B43BE
:10356000036002E003688B4303607047416070476B
:103570000146486880B2704701460020002211F0E1
:10358000805F03D01B4B083B1A6802E0184B083BD6
:103590001A680A4201D0012000E00020704710F0B4
:1035A000805F03D01349091F086002E01049083901
:1035B0004860704701460020002211F0805F03D070
:1035C0000C4B083B1A6802E0094B083B1A680A4298
:1035D00001D0012000E00020704710F0805F03D090
:1035E0000449091F086002E0014908394860704732
:1035F00008000240080402400CB500200190009031
:103600006B48006840F480306949086000BF684832
:10361000006800F4003000900198401C0190009870
:1036200018B90198B0F5A06FF1D16148006810F4A5
:10363000003F02D00120009001E00020009000989F
:10364000012842D15B48006840F0100059490860E9
:103650000846006820F0030008600846006840F053
:103660000200086052484068514948600846406876
:1036700048600846406840F48060486008464068FA
:1036800020F47C1048600846406840F4E810486028
:103690000846006840F08070086000BF4448006839
:1036A00010F0007FFAD04248406820F00300404903
:1036B00048600846406840F00200486000BF3C484F
:1036C000406800F00C000828F9D10CBD10B5FFF7D8
:1036D00093FF10BD10B53648006840F00100344932
:1036E0000860084640683449084031494860084647
:1036F0000068324908402E4908600846006820F4F6
:10370000802008600846406820F4FE0048604FF4BE
:103710001F008860FFF7DAFF4FF00060284908605B
:1037200010BD10B5002100200022214B5B6803F082
:103730000C0121B1042906D0082928D107E0214B2A
:10374000214C236027E01F4B1F4C236023E0184BC4
:103750005B6803F47010164B5B6803F4803202233D
:1037600003EB904022B9194B4343174C23600DE003
:103770000F4B5B6813F4003F04D0144B4343124CCF
:10378000236003E00F4B43430F4C236003E00D4BDA
:103790000D4C236000BF00BF054B5B68C3F30313F0
:1037A0000B4CE15C084B1B68CB40074C236010BD01
:1037B00000100240002002400000FFF8FFFFF6FE6C
:1037C00008ED00E000127A002C01002000093D0005
:1037D00030010020704700BFFEE700BFFEE7000099
:1037E0000948804709480047FEE7FEE7FEE7FEE795
:1037F000FEE7FEE7FEE7FEE7FEE7FEE704480549D1
:10380000054A064B70470000D53600083101000814
:10381000D00E0020D0140020D0100020D0100020A6
:1038200010B50446FE48844209D101214806FEF73E
:10383000A6FA00214FF00070FEF7A1FA08E001217E
:103840008806FEF79CFA00214FF08060FEF797FA99
:1038500010BD30B5024600200023146824F0020495
:103860001460146844F00104146000E05B1C5468A8
:1038700014F0010F03D1A3F57F44FF3CF6D1546847
:1038800014F0010F01D100206CE08C79012C04D1DF
:10389000146844F08004146003E0146824F0800489
:1038A0001460CC79012C04D1146844F040041460F5
:1038B00003E0146824F0400414600C7A012C04D155
:1038C000146844F02004146003E0146824F0200419
:1038D00014604C7A012C04D1146844F01004146074
:1038E00003E0146824F0100414608C7A012C04D1D5
:1038F000146844F00804146003E0146824F0080419
:103900001460CC7A012C04D1146844F004041460CF
:1039100003E0146824F0040414608C78A407CD78C4
:1039200044EA05640D7944EA05444D7944EA0554B6
:103930000D886D1E2C43D461146824F001041460BA
:10394000002300E05B1C546814F0010F03D0A3F5C2
:103950007F44FF3CF6D1546814F0010F01D00020E1
:1039600000E0012030BD10B50021837A012202FA67
:1039700003F1AC4A126842F00102AA4B1A60A94A4C
:103980001C3212688A43A74B1C331A60027BCAB9E7
:10399000A44A0C3212688A43A24B0C331A60428844
:1039A000C38842EA03439F4A4032847A42F8343063
:1039B0000288838842EA03439A4A4032847A02EBBF
:1039C000C4025360027B012A19D1964A0C32126854
:1039D0000A43944B0C331A604288038842EA03433B
:1039E000904A4032847A42F83430C288838842EA6E
:1039F00003438C4A4032847A02EBC4025360C27A99
:103A00003AB9884A121D12688A43864B1B1D1A60F8
:103A100006E0844A121D12680A43824B1B1D1A607D
:103A2000028932B97F4A143212688A437D4B1433BB
:103A30001A600289012A06D17A4A143212680A43AE
:103A4000784B14331A60427B012A06D1754A1C3226
:103A500012680A43734B1C331A60724A126822F0D0
:103A60000102704B1A6010BD00218171C171017299
:103A700041728172C1728170C17003210171022192
:103A800041710121018070476649096841F00101D7
:103A9000644A11601146096843F60E729143614A07
:103AA00011601146096841EA002111601146096858
:103AB00021F001011160704721B1026842F48032A7
:103AC000026003E0026822F4803202607047E1B1D4
:103AD000026842F0800202604FF4C272125842F44F
:103AE00080734FF4C27213504FF4CA72125842F4EA
:103AF00080734FF4CA7213504FF4D272125842F4CA
:103B000080734FF4D27213501BE0026822F08002DF
:103B100002604FF4C272125822F480734FF4C272E2
:103B200013504FF4CA72125822F480734FF4CA72C1
:103B300013504FF4D272125822F480734FF4D272A1
:103B40001350704710B502460020936803F080635D
:103B5000B3F1806F00D110E0936803F00063B3F11C
:103B6000006F01D1012008E0936803F08053B3F1A6
:103B7000805F01D1022000E00420042879D002F502
:103B8000C07303EB00131B6803F0010402F5C0735C
:103B900003EB00131C600B7A7BB94B7A0C8843EA69
:103BA000445302F5C07404EB00142468234302F567
:103BB000C07404EB0014236010E00B7A4C6843EAF5
:103BC000C4034C7A234302F5C07404EB0014246848
:103BD000234302F5C07404EB001423608B7A03F0D6
:103BE0000F038B7202F5C07303EB00135B6823F0C5
:103BF0000F0402F5C07303EB00135C6002F5C073A1
:103C000003EB00135B688C7A234302F5C07404EB6A
:103C1000001463608B7B1C064B7B44EA034403E087
:103C200000640040006600400B7B44EA0323CC7A2A
:103C3000234302F5C07404EB0014A3608B7C1C06C4
:103C40004B7C44EA03440B7C44EA0323CC7B2343B0
:103C500002F5C07404EB0014E36002F5C07303EBDB
:103C600000131B6843F0010402F5C07303EB00135B
:103C70001C6010BD10B50246002321B1012907D0F8
:103C800002290FD109E09068F84C00EA04030BE028
:103C90009068F74C00EA040306E09068F54C00EAEF
:103CA000040301E0002300BF00BFF34C181BA34234
:103CB00016D007DC83B16FF0806018180ED0022890
:103CC00018D111E0B0F5007F10D0EC4C001909D0EC
:103CD000B0F5003F0ED10BE002230DE000230BE016
:103CE000002309E0002307E0012305E0012303E0AE
:103CF000012301E0002300BF00BFD8B210BD21B1F5
:103D0000012907D002290FD109E0826842F0800220
:103D100082600AE0826842F40042826005E08268C4
:103D200042F40002826000E000BF00BF704710B59F
:103D300000F5D87303EB01131B6803F0040313723F
:103D4000137A53B900F5D87303EB01131B6840F2E3
:103D5000FF7404EA5353136009E000F5D87303EBD2
:103D600001131B686FF0604404EAD303536000F54D
:103D7000D87303EB01131B6803F00203537200F5C1
:103D8000D87303EB01135B6803F00F03937200F524
:103D9000D87303EB01135B681B0AD37400F5D87367
:103DA00003EB01139B68D37200F5D87303EB011387
:103DB0009B681C0A147300F5D87303EB01139B680E
:103DC0001C0C547300F5D87303EB01139B681B0E96
:103DD000937300F5D87303EB0113DB68D37300F51D
:103DE000D87303EB0113DB681C0A147400F5D87355
:103DF00003EB0113DB681C0C547400F5D87303EB60
:103E00000113DB681B0E937421B9C36843F02003D0
:103E1000C36003E0036943F02003036110BD21B9CF
:103E2000C26842F02002C26003E0026942F0200250
:103E3000026170470246002019B9D36803F00300FD
:103E400006E0012903D1136903F0030000E000201C
:103E5000704710B502460B4600204FF6FF71BBB904
:103E6000146824F0020444F00104146000E0491EC8
:103E7000546804F00304012C01D00029F7D15468E0
:103E800004F00304012C01D0002032E0012030E0D6
:103E9000012B13D1146824F00304146000E0491EC0
:103EA000546814F0030F01D00029F8D1546814F0BD
:103EB000030F01D000201CE001201AE0022B17D1D3
:103EC000146824F0010444F00204146000E0491E68
:103ED000546804F00304022C01D00029F7D154687F
:103EE00004F00304022C01D0002002E0012000E0D5
:103EF000002010BD014600200A6822F0010242F0B5
:103F000002020A604A6802F00302022A00D101207C
:103F1000704701464FF6FF7200200B6823F0020342
:103F20000B6000E0521E4B6803F00203022B01D12C
:103F3000002AF7D14B6803F00203022B00D00120C6
:103F40007047014600208A6902F070007047014600
:103F500000208A69100E7047014600208A69C2F36A
:103F6000074070471AB143690B43436102E043695C
:103F70008B434361704710B50246002011F4700F67
:103F800008D09369C1F31304234201D001202DE02E
:103F900000202BE011F0807F08D05368C1F3130498
:103FA000234201D0012021E000201FE011F0006F2A
:103FB00008D09368C1F31304234201D0012015E017
:103FC000002013E011F0007F08D0D368C1F3130480
:103FD000234201D0012009E0002007E01369C1F36A
:103FE0001304234201D0012000E0002010BD002274
:103FF000234B994202D10023836111E0C1F31302E4
:1040000011F0007F01D0C2600AE011F0806F01D092
:10401000026105E011F0006F01D0826000E04260B3
:104020007047024600200A4201D0012000E0002033
:10403000704770B504460D4600266069284272D06C
:10404000B5F5807F69D01DDC082D42D006DC012D3E
:104050002DD0022D31D0042D7FD134E0102D3ED053
:10406000202D42D0402D78D145E00000030000040F
:104070000003000800000310000100080001FFF722
:104080007000F030B5F5004F61D009DCB5F5007F68
:104090004AD0B5F5806F4DD0B5F5006F5DD150E0D9
:1040A000B5F5803F2DD0B5F5003F56D12FE0A06883
:1040B0005549FFF7B6FF064651E0E0680321FFF7D8
:1040C000B0FF06464BE0E0680821FFF7AAFF06466E
:1040D00045E0E0681021FFF7A4FF06463FE02069B5
:1040E0000321FFF79EFF064639E020690821FFF70C
:1040F00098FF064633E020691021FFF792FF06463D
:104100002DE060680821FFF78CFF064627E0606815
:104110001021FFF786FF064621E0A0690121FFF785
:1041200080FF06461BE01BE0A0690221FFF779FF34
:10413000064614E0A0690421FFF773FF06460EE06F
:104140000BE0A0697021FFF76CFF064607E060688E
:104150000421FFF766FF064601E0002600BF00E0ED
:104160000026304670BDB1F5007F3AD00FDC202923
:1041700028D006DC01291CD004291DD0082940D1F3
:104180001DE0402921D0B1F5807F3AD126E0B1F57C
:10419000004F31D006DCB1F5806F25D0B1F5006F4E
:1041A0002FD124E0B1F5803F12D0B1F5003F28D1E6
:1041B00011E0154A826025E00822C26022E0102248
:1041C000C2601FE0082202611CE01022026119E0B7
:1041D0000822426016E01022426013E0042242608E
:1041E00010E0042242600DE0042242600AE0002256
:1041F00082610422426005E0002282610422426062
:1042000000E000BF00BF7047010101004FF0000255
:1042100000B5134694469646203922BFA0E80C50BC
:10422000A0E80C50B1F12001BFF4F7AF090728BF97
:10423000A0E80C5048BF0CC05DF804EB890028BF13
:1042400040F8042B08BF704748BF20F8022B11F03C
:10425000804F18BF00F8012B7047704770477047B8
:1042600010B500F009F8006810BD10B5044600F064
:1042700003F8046010BD000000487047700E002075
:1042800000487047700E00207546FFF7F9FFAE46F4
:1042900005006946534620F00700854618B020B552
:1042A000FFF7ACFABDE820404FF000064FF00007E2
:1042B0004FF000084FF0000B21F00701AC46ACE8CE
:1042C000C009ACE8C009ACE8C009ACE8C0098D463B
:1042D00070470446AFF300802046FBF790FF0000D4
:1042E00001491820ABBEFEE72600020070474900D6
:1042F00050EAC12018BF04204A0D18BF40F0010049
:1043000040F2FF72B2EB515F08BF40F0020001289B
:1043100008BF0520704700002DE9F74F144696B0FE
:104320000021C4E902111799089121F00045CA49FA
:104330008D4206DC1799C4E9000119B00020BDE8E0
:10434000F08FC649DFF818A3A9423CDD0899C54E95
:104350000029C54FC54A1799534619DD01F0D2FA15
:10436000554506D0C24AC34B01F0CCFAC4E900015E
:104370000AE04FF0D352BF4B01F0C4FA32463B463D
:1043800001F0C0FAC4E9000119B00120BDE8F08FC6
:1043900000F066FE554506D0B54AB64B00F060FE0B
:1043A000C4E900010AE04FF0D352B24B00F058FECE
:1043B00032463B4600F054FEC4E9000119B04FF00C
:1043C000FF30BDE8F08FAC49A942179978DB21F0A6
:1043D00000488346A94AAA4B414601F0A3F80022AF
:1043E000A84B00F03DFE01F043F8099001F06FF892
:1043F00006460F469D4A534601F094F85A464346F6
:1044000001F08EF980468A46994A9A4B30463946E1
:1044100001F088F82A0D01250B924246534601F01F
:104420007FF9032DC4E9000139D00B98C1F30A517B
:10443000401A05EB45111139814230DA9248C346E2
:10444000784400EB0510CDF81CA00C90D0E90023B7
:104450003046394601F066F8CDE9020102460B46C6
:104460005846079901F04EFA80468A4602460B46A6
:104470005846079901F046FADDE9022301F042FAB5
:1044800083460C9803913946D0E90223304601F067
:1044900049F85A46039B01F035FA6D1CBDE70898B0
:1044A0000028A2BF099819B0BDE8F08F616881F0BB
:1044B00000416160099819B04042BDE8F08FFFE704
:1044C000C1F3130141F480110E911799C1F30A5100
:1044D000A1F2F532511102F01F08C8F12002129228
:1044E00000220C920D92694A7A4402EB810101F19B
:1044F000140C0DA95FF00607DCF80020DCF804506E
:1045000002FA08F3129AD1F800A025FA02F21A432F
:104510000E9BA2FB0356A2FB00329A4415449A4517
:1045200034BF4FF0010B4FF0000B51F8043C05EB8A
:104530000B0E7344954234BF012200221644BBF196
:10454000000F02D0AB4202D903E0AB4201D20122FC
:1045500000E000223244C1F800A041E90223091F13
:10456000ACF1040C7F1EC7D10898DDE90A6500F1A3
:104570000050800F11900898099F800000F0A7FF5D
:1045800080468A46384600F0B9FF6FF01D0201F000
:10459000F6FD07463046059100F0B0FF6FF03D0292
:1045A00001F0EDFDCDE90310284600F0A7FF6FF004
:1045B0005D0201F0E4FD064602460B460191DDE98D
:1045C000031000F04DFD3A46059B00F049FD4246C0
:1045D000534600F045FD00200D46834642465346B3
:1045E00001F090F93A46059B01F08CF9DDE90332C0
:1045F00001F088F93246019B01F092F8DFF89480CF
:10460000234A434600F08EFF06460F46224A234BBC
:104610005846294600F086FF32463B4600F020FD12
:104620000F4606464FF0A84243465846294600F03A
:1046300079FF32463B4600F013FD179A12F0004F07
:1046400004D0119A81F0004152421192C4E9000154
:10465000119819B0BDE8F08FFB21E93F7CD90240E9
:10466000FB21F93F7370032E8A19A33B00004054CD
:104670003163621A61B4D03DFB21394183C8C96DF1
:10468000305FE43F0000E03F941E00001C1E00006D
:10469000182D4454FB21F93D3326A611460B113C3D
:1046A0002DE9FF4D21F0004807460C46B8F1795F2F
:1046B00008DA00F0DDFE002801BF0020324904B016
:1046C000BDE8F08D3A4623461046194600F02AFF11
:1046D000054602462D480E460B460621784400F05A
:1046E0005DF82A46334600F01DFFDDE902238246CD
:1046F0008B463846214600F015FF04460F465246C9
:104700005B462846314600F00DFF22463B4601F04D
:10471000F9F807468A464FF0FF322846314601F045
:104720002EFD1B4A90450ADA3A46534601F0EAF854
:1047300004B00022BDE8F04D134B00F0F1BF154A64
:104740004245A8BFA8F500154FF00004B8BF124DB0
:1047500022462B4601F0D6F80646884622462B46CE
:104760000020094901F0CEF804460D463A4653466A
:104770003046414601F0C6F804B022462B46BDE85B
:10478000F04D00F0CDBF00000000F03FC81B00005E
:104790003333D33F0000E93F0000D23F2DE9F04121
:1047A0004F1E00EBC7010446D1E9000115461E4625
:1047B00037F006020DD02A46334600F0B3FE7F1EC6
:1047C00004EBC703D3E9002300F04AFC37F00602EC
:1047D000F1D1022F25D0042F13D0062F18BFBDE82A
:1047E000F0812A46334600F09DFED4E90A2300F00A
:1047F00037FC2A46334600F095FED4E9082300F042
:104800002FFC2A46334600F08DFED4E9062300F043
:1048100027FC2A46334600F085FED4E9042300F045
:104820001FFC2A46334600F07DFED4E9022300F047
:1048300017FC2A46334600F075FED4E90023BDE894
:10484000F04100F00DBC00002DE9FF4D054621F0C0
:10485000004084B00C46B0F1795F0BDA2846FFF7D0
:1048600046FD042808BF00F0A1F9284608B02146FB
:10487000BDE8F08D2A460B46104600F053FE064672
:104880000F462A46234600F04DFE804626488A46BB
:1048900032463B4605217844FFF780FF8346109857
:1048A000029160B3214A224B4046514600F03AFE45
:1048B000CDE900015A4640465146029B00F032FEC7
:1048C00082468846DDE906014FF0FF3201F057FCD1
:1048D0005246434601F016F832463B4600F022FEAF
:1048E000DDE9062301F00EF8DDE9002301F00AF806
:1048F00008B02A462346BDE8F04D00F011BF0B4634
:104900005A463046394600F00DFE084A084B00F082
:10491000A7FB4246534600F005FE08B02A46234650
:10492000BDE8F04D00F09CBB061B000049555555F5
:104930005555C5BF2DE9F04D044688B08F4821F08C
:104940000047164698460D460691874206DA2046ED
:10495000294600F08DFD002800F0AC808848B84260
:104960001CDC06980028BCBF85F0004588F0004894
:10497000844A854B2046294600F0D2FE04460D4667
:10498000324643468148824900F0BCFF22462B460E
:1049900000F066FB002604460D46B04622462B4634
:1049A0001046194600F0BEFD8B46824602460B4675
:1049B00000F0B8FDCDE90201024676480B4606211B
:1049C0007844FFF7EBFECDE90001734806217844F7
:1049D000DDE90223FFF7E2FE52465B4600F0A2FD4E
:1049E000CDE9020152465B462046294600F09AFD79
:1049F000CDE904019DE80F0000F032FBDDE904235E
:104A000000F090FD3246434600F02AFB52465B46DA
:104A100000F088FD3246434600F022FB80460E46F9
:104A2000DDE904015D4A5E4B00F07CFD4246334601
:104A300000F016FB82468B4622462B4600F010FB08
:104A400080464F480E46B84210985BDC00F03FFDB0
:104A5000074642463346029100F002FBCDE90001D1
:104A6000424633461046194600F05CFDDDE900235E
:104A700000F0A6FB52465B4600F044FF22462B4660
:104A800000F04EFE012201F07AFB3A46029B00F054
:104A900047FE04460D460698022101EAA070C0F1C7
:104AA000010000F014FD08B022462B46BDE8F04D91
:104AB00000F038BD1098401C384320430BD01098AC
:104AC000012812D008B022462B46BDE8F04D002048
:104AD000344900F075BB08B025F000432246BDE81C
:104AE000F04D0020304900F06BBB20462946FFF70F
:104AF000FEFB042808BF00F059F8204608B02946FC
:104B0000BDE8F08D012802BF404608B0BDE8F08D39
:104B100000270B463A462046294600F001FE524641
:104B20005B4600F0FDFD04460D464246334600203C
:104B30001C4900F045FB83463A46884633461046FA
:104B400000F0F0FC0022184B00F08AFA06468A4674
:104B500022462B463846414600F0E4FC3246534696
:104B600000F07EFA5A46434600F0DCFC08B03A46B4
:104B70004346BDE8F04D00F073BA00000000303E3F
:104B80002894E53F182D4454FB21E93F075C14337A
:104B900026A6813C041A0000261A000063555555CC
:104BA0005555D53F0000F0BF0000F03F024A0020FD
:104BB000110701F0E4BA000001FDFFFF2DE9F84FF5
:104BC00004460D4621F0004000917449814213DCF7
:104BD0007349884201DC08D13CB120462946BDE832
:104BE000F84F4FF0010201F0CABA6E48002DCCBF59
:104BF0006D496E49BDE8F88F6D49814211DD6D49FF
:104C00008142D8BF4FF0FF366DDD20462946FFF7C1
:104C10006EFB042808BFFFF7C9FF20462946BDE800
:104C2000F88F6549654F25F00045814233DD6449C1
:104C3000814219DD002632464FF080432046294646
:104C400000F00EFA80468A4601222046294601F0ED
:104C500096FA00223B4600F055FE4246534600F0CD
:104C6000AFFA04460D463EE001260022BA463B4616
:104C70002046294600F0F4F980460F4600225346AC
:104C80002046294600F03EFE42463B4600F098FA98
:104C900004460D4627E04B4981421BDDDFF82881A1
:104CA0000226002243462046294600F03BFC002213
:104CB0003B4600F0D5F907468A4600224346204687
:104CC000294600F01FFE3A46534600F079FA0446A2
:104CD0000D4608E0032622462B4600203B4900F003
:104CE0006FFA04460D4622462B461046194600F040
:104CF00019FC8B46824602460B4600F013FC074621
:104D00000246334888460B4606217844FFF746FDA5
:104D100052465B4600F006FC82462E488B463A46D9
:104D2000434605217844FFF739FD3A46434600F0F3
:104D3000F9FB02460B46002E504659460CDA00F0AD
:104D40008FF922462B4600F0EDFB01B022462B46A0
:104D5000BDE8F04F00F0E4BC00F082F922462B469B
:104D600000F0E0FB1C4A7A4402EBC603D3E90023BF
:104D700000F0C8FD22462B4600F0C4FD174A7A44D5
:104D800002EBC603D3E9002300F0CAFC009A002A14
:104D9000B8BF81F00041BDE8F88F0000000010446A
:104DA0000000F07F182D4454FB21F93FFB21F9BF8F
:104DB0000000DC3F0000203E0000F33F0000F03F19
:104DC0000000E63F008003400000F83F0000F0BF15
:104DD0006A15000028150000C61400008E1400009B
:104DE00000B5284B21F0004287B09A42DCBF002278
:104DF000134631DD244B9A420DD168B94FF00100C2
:104E0000FFF733FA002207B01346104611465DF84B
:104E100004EB00F0D5B906DB07B04FF001025DF8F6
:104E200004EB01F0ACB902AAFFF776FA10F0030127
:104E300004BF0DF1080CBCE80F000DD001200129C2
:104E40000ED0022914D00DF1080C0090BCE80F0020
:104E5000FFF7FAFC07B000BDFFF722FC07B000BD6A
:104E60000DF1080C0090BCE80F00FFF7EDFC05E029
:104E70000DF1080CBCE80F00FFF712FC07B081F041
:104E8000004100BDFB21E93F0000F07F00B5294B48
:104E900021F0004287B09A4203DC002213460092C0
:104EA00033E0254B9A420DD168B94FF00100FFF76E
:104EB000DCF9002207B01346104611465DF804EBFA
:104EC00000F07EB906DB07B04FF001025DF804EB9D
:104ED00001F055B902AAFFF71FFA10F003014FF0D5
:104EE00001000DD0012914D002291AD00DF1080CAF
:104EF000BCE80F00FFF7D4FB07B081F0004100BD14
:104F00000DF1080C0090BCE80F00FFF79DFC07B006
:104F100000BD0DF1080CBCE80F00FFF7C1FB07B0A6
:104F200000BD0DF1080C0090BCE80F00FFF78CFCF1
:104F3000E2E70000FB21E93F0000F07F2DE9F041AE
:104F400006460F4600F0F8FB04000D4618BF01208E
:104F5000284320F00040C0F17F6000F1E040C00F26
:104F60000ED0301C18BF0120384320F00040C0F1A3
:104F70007F6000F1E040C00F04BF0120FFF775F92A
:104F800020462946BDE8F08110B51A4B21F00042B9
:104F9000012486B09A4203DC00221346009424E0E8
:104FA000154B9A420DD168B94FF00100FFF75DF93A
:104FB000002206B01346BDE810401046114600F02E
:104FC000FFB806DB06B04FF00102BDE8104001F06B
:104FD000D6B802AAFFF7A0F900F00100A4EB400048
:104FE0000DF1080C0090BCE80F00FFF7A3FC06B021
:104FF00010BD0000FB21E93F0000F07F21F00042DE
:10500000A2F16052B2F5801F01F0004328BFD2F137
:105010007F6C0BD95FEA001C43EAC20242EB50707E
:1050200018BF704728BF20F001007047B2F5801FFD
:10503000BCBF184670474FEA410C1CF5001F02D256
:10504000084600F0B4BF70B500F016FB0000008900
:10505000FFF7F6BF4FF00040A0F58000704700005A
:1050600010B591EA030F48BF83F0004300F152846A
:10507000841A71EB030C05D2121943EB0C03001BCD
:1050800061EB0C01DFF824E14FEA1154A4EB135C4F
:105090001EEA430F18BF9EEA445F73D023EA0E0353
:1050A000DCF1200E21EA045143F4801332D322FABA
:1050B0000CFE10EB0E0023FA0CFE41EB0E01CCF1BE
:1050C000200E03FA0EFE10EB0E0051F10001B1F5B7
:1050D000801FCCF1200E32D201EB045112FA0EF2F5
:1050E000BDE8104058BF7047401C38BF5FEA42021D
:1050F00018BF7047002814BF20F0010041F10001E3
:105100004FEA410313F5001F38BF7047A1F1C041BA
:1051100000F000BB012A43EB0302ACF1200CDCF1F0
:105120001F0E32BF4FF0000E23FA0CF310EB0300FA
:1051300041EB0451B4EB115FD0D0A1EB045101F568
:10514000801149085FEA300001EB04510ED350F1A1
:10515000000038BF12FA0EFE08D1BDE81040C9E7C2
:10516000401C38BF5FEA4202CAD1C3E7BDE8104025
:105170004FEA410313F5001F38BF7047A1F1C0414A
:1051800000F0C8BA9EEA445F08D011EA5E0FBDE89D
:10519000104004BF01F0004100207047BDE81040FE
:1051A00070B500F069FA00BF64FBBE3E0000E0FF8E
:1051B00002494FF0000000F0B0BF00BF0000F87FD0
:1051C0002DE9C04130B4DFF8A0C23CEA111418BF89
:1051D0003CEA131400F0EC8081EA03051CEA111488
:1051E00044EAD57418BF1CEA131500F0C780A4EB7D
:1051F00005044FF0004545EAC12145EAC32341EAD1
:10520000505143EA525304F17F74994204F500343B
:105210004FEAC0204FEAC22208BF904200F09C80B3
:105220004FEA13650FF24016765D4FEA134506FB11
:1052300005F7C7F1807706FB07F74FEAD737A7FBDB
:1052400003687642C8F58038A7FB06CE38BFA8F1C0
:10525000010807FB08E64FF0000EA6FB028CE6FBF8
:1052600003CEDCF1000CCEF1004E38BFAEF1010EE2
:10527000A6FB0C584FF000074FF00005E6FB0E8729
:10528000A1FB08C6A0FB07CE16EB0E0645F10005F4
:10529000E1FB076515F1E04E7EBFA4F580345FEABF
:1052A00046066D4116F1800745F100054FEA1727C4
:1052B0004FEA066647EA0567A6F1DE46B6F1805F6B
:1052C0004FEA15251FD9384624F0010C05EBC471AF
:1052D000BCF1FE6F01EB0C1102D8F0BCBDE80081FF
:1052E00024425CBF01F5801E9EEAC47F02D4F0BC5C
:1052F000BDE80081244238D4F0BCA1F1C041BDE832
:10530000004100F007BA4FEAD22242EA43524FEA84
:10531000D323A7FB02864FEAD02040EA415007FB87
:1053200003661EEA0E0F4FEAD12105FB026658BF45
:10533000A6EB0056B6EB00564FEA520E4EEAC37E7D
:1053400018EB0E0E56EB530EBDD518EB02085E415E
:105350007F1C55F10005B6E74FF480154FF00007AC
:105360004FF000064FF00008ADE7F0BC4FF0000032
:1053700001F1C04101F00041BDE8008111EA0C1FBC
:105380000CEA131500D00CE013EA0C1F00F0258086
:105390004FF00000F0BC81EA030101F00041BDE8DC
:1053A0000081F0BCBDE8004181EA030100F0B2B920
:1053B000F0BCBDE8004170B500F05EF9097EFC3E2E
:1053C00000F007B881EA03014FF0000001F000414E
:1053D000704781EA030100F09DB9F0BCBDE80041CF
:1053E0004FF0000021497047FFFDFBF9F7F5F4F29B
:1053F000F0EEEDEBE9E8E6E4E3E1E0DEDDDBDAD870
:10540000D7D5D4D3D1D0CFCDCCCBCAC8C7C6C5C4CD
:10541000C2C1C0BFBEBDBCBBBAB9B8B7B6B5B4B3E4
:10542000B2B1B0AFAEADACABAAA9A8A8A7A6A5A4CF
:10543000A3A3A2A1A09F9F9E9D9C9C9B9A99999893
:105440009797969595949393929191908F8F8E8E36
:105450008D8C8C8B8B8A89898888878786858584C3
:1054600084838382828181800000FF070000F87FAF
:105470004FEA41034FEA5353A3F58063D3F11E0370
:10548000C8BFD3F1210C0CDD4FF0004242EAC1222B
:1054900042EA505232FA03FC8CEAE17CACEBE17058
:1054A0007047102BC4BF0020704703F5787CBCF117
:1054B000FF3F04D06FF0004282EA2100704770B5D0
:1054C00000F0DAF84992248000207047F2E710F0EB
:1054D000004248BF4042B0FA80F310FA03F10AD00C
:1054E000C3F11D0303F580634FEA415002EB035201
:1054F00002EBD12170474FF000007047B0FA80F303
:1055000010FA03F10AD0C3F11D0303F580634FEADB
:1055100041504FEA035202EBD12170474FF0000097
:1055200070470000DFF848C170B51CEA111E1EBFAD
:105530001CEA13159EEA0C0F95EA0C0F00F06F8021
:1055400081EA030423EA4C134EEAD47E21EA4C118B
:1055500041F4801143F48013AE44A1FB024CA0FB44
:105560000365AEF17F7E361955EB0C05A1FB034CAC
:105570004CF10003A0FB021C16EB0C06654153F135
:105580000003094218BF46F0010613F4007F0BD157
:105590004FEA03314FEA0530340341EA155140EA3E
:1055A00016506FF003020AE04FEAC3214FEAC5200C
:1055B000F40241EA555140EA56506FF0020202EB04
:1055C0002E4201EB025585EACE710AD05FEA440C07
:1055D00018BF24F0004450F1000041F1000120EA1E
:1055E000D47040F2FE7C624500D270BDA84214BF68
:1055F0004FF080444FF04044002E08BF0024BEF11D
:10560000806FA8BFA1F1C041BDE8704080F28280E8
:105610004FF0000001F1C04101F0004170479EEAE7
:105620000C0F0CEA131518BF95EA0C0F06D04FF0BB
:10563000000081EA030E0EF0004170BD00F01CF87E
:105640008900013E00F007B800F009B84FEA430CAA
:105650005FEA5C5C08D081EA030100F05BB84FEAC6
:10566000410C5FEA5C5CF6D14FF0000001497047E5
:105670000000FF070000F87F0EF1020E2EF0030E6F
:105680005EF8046B364205D4012A43EB030515F599
:10569000001F12D8012841EB010C1CF5001F0CD88B
:1056A0000ED14FEAD17C15F5001F0CEB4C0C0CF120
:1056B000020C08BF4CEBD37C04E04FF0080C01E077
:1056C0004FEAD37C0CEB4C0526FA05F606F00706EC
:1056D000B6F1040C06D20EEB860CBDE870404CF01F
:1056E000010C6047DFE80CF0090B02024FF00041AB
:1056F0004FF00000A1F5002170BD194610460128A9
:1057000051EB010418BFD4F5001484BF002001F050
:10571000004170BD0808A0F500114FEA3101704743
:1057200091EA030F10B581F000413FF5A1AC83F081
:10573000004300F0EFB800002DE9F04101F5801CB6
:10574000BCF5001FC0F2C3804FEA115C21EA0C5186
:105750000CF1FD0C41F480115FEA5C0C0CF5C07C8F
:1057600001D3400049413DA4890241EA905187029A
:105770008E0E0A0CA45D04FB04F602FB06F6C6F1CD
:105780004046A4FB0662F60D46EA422606FB06F4F6
:10579000A4FB01235242C3F1404338BF5B1EA6FB6A
:1057A00002420024E6FB0324D20B42EA4446A6FB55
:1057B0000623A1FB02E2A3FB07E4A4184FF00002BA
:1057C00052F10002E3FB01426442C2F1404E38BF95
:1057D000AEF1010EA6FB04234FF00002E6FB0E32F1
:1057E000A2FB03464FF00004B61954F10004E2FB9B
:1057F0000264A1FB06E6A4FB07E816EB08064FF0DF
:10580000000858F10008E4FB01687642C8F14058EE
:1058100038BFA8F10108A2FB06E4A3FB08E52D1997
:105820004FF0000454F10004E2FB0854A1FB05E62C
:10583000A7FB04E818EB06084FF0000656F1000637
:10584000E1FB048618F1200556F10006A809A8F12D
:105850001B08B10908F03F08B8F10A0F40EA86605A
:105860001CD901EB0C51BDE8F08100BFFCF5EEE85E
:10587000E2DDD8D3CFCBC7C3C0BDB9B6B4B1AEACEF
:10588000A9A7A5A3A19F9D9B9A9896959392908F67
:105890008D8C8B898887868584838281A0FB0068B4
:1058A00000FB01F208EB4208B8EB872807D5341853
:1058B00058EB0104D5D5401C51F10001D1E7341A51
:1058C00078EB0104CDD4401E71F10001C9E75FEA15
:1058D0004C0C5FEA9C5C0DD105D34FF0000001F049
:1058E0000041BDE8F081BDE8F04170B5FFF7C4FEAE
:1058F0006DDBFFBEBDE8F0414FF00000004970478E
:105900000000F87F10B591EA030F48BF83F0004311
:105910003FF5AEAB841A71EB030C07D212198CF071
:10592000004C43EB0C03001B61EB0C01DFF8A4E11E
:105930004FEA1154A4EB135C1EEA430F18BF9EEA12
:10594000445F00F0B08023EA6E03524221EA045122
:10595000C3EB6E0338BF5B1EDCF1200E25D322FAA9
:105960000CFE10EB0E0043FA0CFE41EB0E01CCF1E5
:10597000200E03FA0EFE10EB0E0051F10001CCF1E7
:10598000200E29D412FA0EF201EB0451BDE81040AA
:1059900058BF7047401C1CBFB2F1004F7047002831
:1059A0000CBF491C20F00100704712EB020E43EBC4
:1059B000030218BF4FF0010E4EEA4202ACF1200C78
:1059C000DCF11E0E54D943FA0CFE10EB0E0051F11F
:1059D000FF31CCF11E0ED5D50EF1010E12FA0EFEDE
:1059E000404141EB010101EB445C5FEA5C5C10D992
:1059F00010EBDE7001EB045138BFBEF1004FBDE883
:105A0000104018BF704700280CBF491C20F001004F
:105A1000704730D24FEAD42C11F5001124F4006401
:105A20001BD0B1FA81F20B3AA41AA41ED2F12003C2
:105A3000914030FA03F31943904001EBCC71002CF4
:105A400001EB0451BDE81040A8BF704701F1C0410F
:105A50004FF0000001F000417047B0FA80F310FAF7
:105A600003F100D110BDE41A173C4805C90AE4E768
:105A700001EB045110BD491001EB0451BDE8104089
:105A80004FEA300002E04FF0000170474A0008BFC3
:105A90000042F8D0B2F5001F28BF704701F0004166
:105AA0004FF0000070479EEA445F07D011EA5E0F96
:105AB000BDE8104004BF002100207047BDE8104041
:105AC00070B5FFF7D9FD00BF40DFF63E83F000411F
:105AD000104670470000E0FF43004FEAD30C4FEA46
